:100000000C942A000C94250D0C94520D0C947F0D29
:100010000C9450160C9423160C94F6150C94C915D8
:100020000C949C150C946F150C9442150C9415159A
:100030000C9447000C9447000C9447000C94470024
:100040000C9447000C9447000C9447000C94470014
:100050000C94470011241FBECFE5D8E0DEBFCDBF12
:1000600012E0A0E6B0E0EEE5F7E302C005900D92E5
:10007000A23DB107D9F712E0A2EDB2E001C01D9296
:10008000A33FB107E1F70E94551A0C94AD1B0C94E5
:100090000000EF92FF920F931F937B018C0120E0F1
:1000A00030E040E05FE40E94F50388238CF0C80153
:1000B000B70120E030E040E05FE40E94C1010E940F
:1000C00055049B01AC01205030404040504806C0D0
:1000D000C801B7010E9455049B01AC01B901CA01D6
:1000E0001F910F91FF90EF900895A0E0B0E0EBE733
:1000F000F0E00C94761BDC012B01FA019C9192300C
:1001000008F439C1EB018881823008F433C194309E
:1001100069F4843009F02FC111969C91119789815F
:10012000981709F428C1A1E7B0E025C1843009F48B
:1001300021C18230A9F4923009F01DC19A01AD01AC
:1001400088E0EA010990AE01E90109929E0181501F
:10015000C1F7E201898111969C918923818308C1AD
:10016000923009F407C112962D903C901397EB0141
:100170008A819B811496AD90BD90CD90DC901797AD
:10018000EC80FD800E811F819101281B390BB90184
:1001900037FF04C066277727621B730B6032710537
:1001A0000CF061C0121613066CF537014801062EDB
:1001B00004C096948794779467940A94D2F721E0C8
:1001C00030E040E050E004C0220F331F441F551FB1
:1001D0006A95D2F721503040404050402E213F21B7
:1001E00040235123211531054105510521F021E01E
:1001F00030E040E050E079018A01E628F72808293C
:1002000019293CC0232BD1F1260E371E350146019A
:10021000062E04C096948794779467940A94D2F734
:1002200021E030E040E050E004C0220F331F441FC3
:10023000551F6A95D2F721503040404050402A2146
:100240003B214C215D21211531054105510521F04E
:1002500021E030E040E050E059016A01A628B728CB
:10026000C828D9280BC0821593052CF01C01AA249C
:10027000BB24650103C0EE24FF24870111969C91E5
:10028000D20111968C91981709F445C0992339F041
:10029000A80197012A193B094C095D0906C0A6016E
:1002A00095012E193F09400B510B57FD08C01182D3
:1002B0003382228224833583468357831DC081E0A5
:1002C00081833382228288279927DC01821B930B4A
:1002D000A40BB50B84839583A683B7830DC0220F2F
:1002E000331F441F551F24833583468357838281E0
:1002F000938101979383828324813581468157813D
:10030000DA01C9010197A109B1098F5F9F4FAF4F72
:10031000BF4328F30BC0918333822282EA0CFB1C7B
:100320000C1D1D1DE482F5820683178383E0808304
:10033000248135814681578157FF1AC0C901AA27F8
:1003400097FDA095BA2F81709070A070B0705695EF
:10035000479537952795822B932BA42BB52B848318
:100360009583A683B7838281938101969383828349
:10037000DF0101C0D201CD01CDB7DEB7E2E10C94BF
:10038000921BA0E2B0E0E7ECF1E00C94821B6983E1
:100390007A838B839C832D833E834F835887E9E048
:1003A000EE2EF12CEC0EFD1ECE010196B7010E943F
:1003B00046068E010F5E1F4FCE010596B8010E94C2
:1003C00046068A8991E089278A8BC701B801AE0168
:1003D000475E5F4F0E9475000E947105A096E6E09F
:1003E0000C949E1BA0E2B0E0E8EFF1E00C94821BBD
:1003F00069837A838B839C832D833E834F835887C5
:10040000F9E0EF2EF12CEC0EFD1ECE010196B701A6
:100410000E9446068E010F5E1F4FCE010596B80161
:100420000E944606C701B801AE01475E5F4F0E94B9
:1004300075000E947105A096E6E00C949E1BA0E258
:10044000B0E0E5E2F2E00C94761B69837A838B835B
:100450009C832D833E834F835887CE010196BE0136
:10046000675F7F4F0E944606CE010596BE016F5E14
:100470007F4F0E9446069985923088F089898230A4
:10048000C8F0943019F4823051F404C0843029F457
:10049000923081F481E790E0C6C0923049F420E0C8
:1004A0009A858A89981321E02A87CE010996BBC0D4
:1004B000823049F420E09A858A89981321E02A8BBA
:1004C000CE014196B0C02D843E844F8458886D88FB
:1004D0007E888F88988CEE24FF248701AA24BB2471
:1004E000650140E050E060E070E0E0E0F0E0C10174
:1004F00081709070892BE9F0E60CF71C081D191D1E
:100500009A01AB012A0D3B1D4C1D5D1D80E090E062
:10051000A0E0B0E0E614F7040805190520F481E036
:1005200090E0A0E0B0E0BA01A901480F591F6A1F8E
:100530007B1FAA0CBB1CCC1CDD1C97FE08C081E0F5
:1005400090E0A0E0B0E0A82AB92ACA2ADB2A3196B6
:10055000E032F10549F0660C771C881C991C569412
:10056000479437942794C3CFFA85EA892B893C892D
:100570008B859C85280F391F2E5F3F4F17C0CA01FE
:1005800081709070892B61F016950795F794E79428
:1005900080E090E0A0E0B0E8E82AF92A0A2B1B2BC3
:1005A00076956795579547952F5F3F4F77FDE7CF36
:1005B0000CC0440F551F661F771F17FD4160EE0CDE
:1005C000FF1C001F111F21503040403090E05907A0
:1005D00090E0690790E4790760F32B8F3C8FDB0193
:1005E000CA018F779070A070B07080349105A1051A
:1005F000B10561F447FD0AC0E114F10401051105DC
:1006000029F0405C5F4F6F4F7F4F40781A8EFE1786
:1006100011F081E08A8F4D8F5E8F6F8F78A383E01A
:10062000898FCE0149960E947105A096E2E10C9453
:10063000921BA8E1B0E0EFE1F3E00C947E1B69832C
:100640007A838B839C832D833E834F835887B9E0C5
:10065000EB2EF12CEC0EFD1ECE010196B7010E948F
:1006600046068E010F5E1F4FCE010596B8010E940F
:1006700046062985223008F47EC03989323010F4CC
:10068000B8017CC08A859A8989278A87243011F02D
:10069000223031F4231709F06EC061E770E06EC0BC
:1006A000343039F41D861E861F86188A1C861B86E8
:1006B00004C0323021F484E08987B7015FC02B8504
:1006C0003C858B899C89281B390B3C872B87ED84C3
:1006D000FE840F851889AD88BE88CF88D88CEA142F
:1006E000FB040C051D0540F4EE0CFF1C001F111F40
:1006F000215030403C872B8720E030E040E050E044
:1007000080E090E0A0E0B0E460E070E0EA14FB0478
:100710000C051D0540F0282B392B4A2B5B2BEA18C2
:10072000FB080C091D09B695A79597958795EE0CC2
:10073000FF1C001F111F6F5F7F4F6F31710531F775
:10074000DA01C9018F779070A070B0708034910584
:10075000A105B10561F427FD0AC0E114F10401050A
:10076000110529F0205C3F4F4F4F5F4F20782D87B8
:100770003E874F87588BBE01675F7F4FCB010E943A
:1007800071056896EAE00C949A1BA8E1B0E0EBECE6
:10079000F3E00C94821B69837A838B839C832D8383
:1007A0003E834F83588789E0E82EF12CEC0EFD1E26
:1007B000CE010196B7010E9446068E010F5E1F4FC3
:1007C000CE010596B8010E9446068985823040F028
:1007D0008989823028F0C701B8010E94BE0601C095
:1007E0008FEF6896E6E00C949E1BA8E1B0E0EBEF7B
:1007F000F3E00C94821B69837A838B839C832D8323
:100800003E834F83588789E0E82EF12CEC0EFD1EC5
:10081000CE010196B7010E9446068E010F5E1F4F62
:10082000CE010596B8010E9446068985823040F0C7
:100830008989823028F0C701B8010E94BE0601C034
:100840008FEF6896E6E00C949E1BA8E1B0E0EBE227
:10085000F4E00C94821B69837A838B839C832D83C1
:100860003E834F83588789E0E82EF12CEC0EFD1E65
:10087000CE010196B7010E9446068E010F5E1F4F02
:10088000CE010596B8010E9446068985823040F067
:100890008989823028F0C701B8010E94BE0601C0D4
:1008A00081E06896E6E00C949E1BACE0B0E0EBE5DE
:1008B000F4E00C94861B69837A838B839C83CE013E
:1008C0000196BE016B5F7F4F0E9446068D8182308C
:1008D00061F1823050F1843021F48E81882351F10E
:1008E0002EC02F81388537FD20C06E812F31310514
:1008F0001CF06623F9F023C08EE190E0821B930B7D
:1009000029853A854B855C8504C056954795379572
:1009100027958A95D2F76623B1F05095409530958A
:1009200021953F4F4F4F5F4F0EC020E030E040E039
:1009300050E009C02FEF3FEF4FEF5FE704C020E02A
:1009400030E040E050E8B901CA012C96E2E00C9496
:10095000A21BA8E0B0E0EFEAF4E00C947E1B7B0160
:100960008C01611571058105910519F482E0898377
:1009700060C083E089838EE1C82ED12CDC82CB82DB
:10098000ED82FE820F831887C801B7010E942205FD
:10099000FC013197F7FF3BC0222733272E1B3F0B6B
:1009A00057016801022E04C0D694C794B794A79447
:1009B0000A94D2F740E050E060E070E081E090E01F
:1009C000A0E0B0E004C0880F991FAA1FBB1F2A95A2
:1009D000D2F70197A109B1098E219F21A023B1234C
:1009E0000097A105B10521F041E050E060E070E022
:1009F0004A295B296C297D294D835E836F83788723
:100A00008EE190E08E1B9F0B9C838B8312C03097EE
:100A100081F00E2E04C0EE0CFF1C001F111F0A9463
:100A2000D2F7ED82FE820F831887CE1ADF0ADC82AE
:100A3000CB821A82CE0101960E9471052896EAE0C7
:100A40000C949A1BEF92FF920F931F937B018C01E2
:100A500080E0E81680E0F80681E0080780E01807EB
:100A600088F48FEFE816F1040105110531F028F044
:100A700088E090E0A0E0B0E017C080E090E0A0E067
:100A8000B0E012C080E0E81680E0F80680E00807D9
:100A900081E0180728F088E190E0A0E0B0E004C011
:100AA00080E190E0A0E0B0E020E230E040E050E003
:100AB000281B390B4A0B5B0B04C016950795F7945E
:100AC000E7948A95D2F7F701E758FF4F8081281BFA
:100AD000310941095109C9011F910F91FF90EF9010
:100AE0000895DF92EF92FF920F931F93FC01E48031
:100AF000F58006811781D1808081823048F480E0C2
:100B000090E0A0E1B0E0E82AF92A0A2B1B2BA5C04F
:100B1000843009F49FC0823021F4EE24FF24870141
:100B200005C0E114F1040105110519F4E0E0F0E05D
:100B300096C0628173819FEF623879070CF05BC0C9
:100B400022E83FEF261B370B2A3131052CF020E03D
:100B500030E040E050E02AC0B801A701022E04C0F6
:100B600076956795579547950A94D2F781E090E07E
:100B7000A0E0B0E004C0880F991FAA1FBB1F2A95F0
:100B8000D2F70197A109B1098E219F21A023B1239A
:100B90000097A105B10521F081E090E0A0E0B0E070
:100BA0009A01AB01282B392B4A2B5B2BDA01C901A7
:100BB0008F779070A070B07080349105A105B10559
:100BC00039F427FF09C0205C3F4F4F4F5F4F04C0EF
:100BD000215C3F4F4F4F5F4FE0E0F0E02030A0E05E
:100BE0003A07A0E04A07A0E45A0710F0E1E0F0E07D
:100BF00079018A0127C06038710564F5FB01E1586D
:100C0000FF4FD801C7018F779070A070B07080340B
:100C10009105A105B10539F4E7FE0DC080E490E02F
:100C2000A0E0B0E004C08FE390E0A0E0B0E0E80E08
:100C3000F91E0A1F1B1F17FF05C016950795F7948D
:100C4000E794319687E016950795F794E7948A958F
:100C5000D1F705C0EE24FF248701EFEFF0E06E2FFF
:100C6000679566276795902F9F77D794DD24D79453
:100C70008E2F8695492F462B582F5D29B701CA0123
:100C80001F910F91FF90EF90DF900895FC01DB0121
:100C9000408151812281622F6F7770E0221F2227CD
:100CA000221F9381892F880F822B282F30E0991FD4
:100CB0009927991F11969C93119721153105A9F534
:100CC000411551056105710511F482E037C082E8D4
:100CD0009FEF13969C938E9312979A01AB0167E056
:100CE000220F331F441F551F6A95D1F783E08C9361
:100CF0000DC0220F331F441F551F12968D919C91DA
:100D00001397019713969C938E931297203080E04F
:100D1000380780E0480780E4580758F314962D936D
:100D20003D934D935C93179708952F3F310579F4C8
:100D3000411551056105710519F484E08C930895FE
:100D400064FF03C081E08C9312C01C9210C02F5727
:100D5000304013963C932E93129783E08C9387E058
:100D6000440F551F661F771F8A95D1F7706414963C
:100D70004D935D936D937C93179708951F93DC01BA
:100D8000FB019C91923008F447C08081823008F4C6
:100D900043C0943051F411961C91843099F58181AF
:100DA000682F70E0611B71093FC0843021F09230E0
:100DB00031F48230B9F18181882389F12DC01196F7
:100DC0001C9111978230F1F081811817D9F4129695
:100DD0002D913C911397828193818217930794F010
:100DE00028173907BCF014968D919D910D90BC91F8
:100DF000A02D2481358146815781281739074A075C
:100E00005B0718F4112341F00AC082179307A40767
:100E1000B50740F4112319F061E070E005C06FEFF1
:100E20007FEF02C060E070E0CB011F910895DF9377
:100E3000CF9300D0CDB7DEB781E060E041E00E9403
:100E4000060A81E060E041E00E940E0B8EEA99E024
:100E50000E94AB0F8CEE99E00E94F71880E060E0F2
:100E600041E00E94AC0D80E00E94871989818C7F4F
:100E700089838981837C898389818F738068898351
:100E80008A818E7F8A838A81897F8A838A8188602A
:100E90008A838A818F7E8A8389819A810E947D16C6
:100EA0000F900F90CF91DF910895DF93CF93CDB73F
:100EB000DEB7EE970FB6F894DEBF0FBECDBF1DAE06
:100EC0001CAE18AE19AE1AAE1BAE1CAA1DAA1EAAE5
:100ED0001FAA8091D8029091D902A091DA02B09114
:100EE000DB022227382F492F5A2F8091D602882FD4
:100EF00090E0A0E0B0E0820F931FA41FB51F8CAB61
:100F00009DABAEABBFAB8CA99DA9AEA9BFA92CE28E
:100F100031E040E050E0BC01CD010E94251BDA0128
:100F2000C90188AF99AFAAAFBBAF03C12091CF026F
:100F30003091D0028DAD882F90E0F901E80FF91FB4
:100F4000808181548EAF1BAAEDC08EAD282F30E07A
:100F50008BA9482F50E0C901880F991F880F991F4E
:100F6000880F991F820F931F840F951FFC01E7586C
:100F7000FE4F908180E0692F0E94951988AD99AD50
:100F8000AAADBBAD2AE030E040E050E0BC01CD01AD
:100F90000E94F31ADC01CB01BC01CD010E94A9041F
:100FA000DC01CB018DA79EA7AFA7B8AB6DA57EA531
:100FB0008FA598A92BEA3AEA4AE250E40E941F0260
:100FC000DC01CB0189A79AA7ABA7BCA769A57AA525
:100FD0008BA59CA520E030E040E85FE30E9425045B
:100FE00088231CF481E088A791C069A57AA58BA508
:100FF0009CA520E030E04FE753E40E94C50318169B
:101000000CF07BC06DA57EA58FA598A920E030E0EF
:101010004AE754E40E941903DC01CB018CA39DA391
:10102000AEA3BFA36CA17DA18EA19FA120E030E063
:101030004AEF54E40E941F02DC01CB0188A399A36C
:10104000AAA3BBA368A179A18AA19BA120E030E05B
:1010500040E85FE30E94250488232CF481E090E0BF
:101060009F8F8E8F3FC068A179A18AA19BA120E0AC
:101070003FEF4FE757E40E94C50318164CF56CA1EB
:101080007DA18EA19FA120E030E040E251E40E94CA
:101090001F02DC01CB01BC01CD010E944900DC0133
:1010A000CB019F8F8E8F0FC088EC90E09D8F8C8F2F
:1010B0008C8D9D8D0197F1F79D8F8C8F8E8D9F8DDF
:1010C00001979F8F8E8F8E8D9F8D009769F724C01B
:1010D00068A179A18AA19BA10E944900DC01CB01F2
:1010E0009F8F8E8F8E8D9F8D9B8F8A8F8A8D9B8DEC
:1010F0000197F1F79B8F8A8F0FC069A57AA58BA501
:101100009CA50E944900DC01CB0188A788A5898F96
:10111000898D8A95F1F7898F8CAD8F5F8CAF8BA904
:101120008F5F8BAB8BA9893008F40FCF8DAD8F5FAC
:101130008DAF2091CF023091D0028DAD882F90E0FD
:10114000F901E80FF91F8081882309F0EFCE209183
:10115000CF023091D0028DAD882F90E0F901E80FD9
:10116000F91F8081882309F0B4CE80E060E00E94FE
:10117000E10C8CAD882F90E09C01220F331FC90138
:10118000880F991F880F991F820F931F21E08C32BF
:1011900092079CF48CAD882F90E09C01220F331FA6
:1011A000C901880F991F880F991F820F931F90956F
:1011B00081959F4F845D8AAB02C084EB8AAB19AAEC
:1011C000C5C068AD79AD8AAD9BAD0E94A904DC01B4
:1011D000CB018D8B9E8BAF8BB88F6D897E898F896C
:1011E000988D2BEA3AEA4AE250E40E941F02DC01A1
:1011F000CB01898B9A8BAB8BBC8B69897A898B8964
:101200009C8920E030E040E85FE30E9425048823C9
:101210001CF481E0888B91C069897A898B899C89CB
:1012200020E030E04FE753E40E94C50318160CF0AD
:101230007BC06D897E898F89988D20E030E04AE7F8
:1012400054E40E941903DC01CB018C879D87AE8793
:10125000BF876C857D858E859F8520E030E04AEFD5
:1012600054E40E941F02DC01CB0188879987AA877A
:10127000BB87688579858A859B8520E030E040E8DA
:101280005FE30E94250488232CF481E090E09F8393
:101290008E833FC0688579858A859B8520E03FEFF6
:1012A0004FE757E40E94C50318164CF56C857D8501
:1012B0008E859F8520E030E040E251E40E941F02CD
:1012C000DC01CB01BC01CD010E944900DC01CB0156
:1012D0009F838E830FC088EC90E09D838C838C81EC
:1012E0009D810197F1F79D838C838E819F8101976A
:1012F0009F838E838E819F81009769F724C06885C4
:1013000079858A859B850E944900DC01CB019F83FA
:101310008E838E819F819B838A838A819B810197A3
:10132000F1F79B838A830FC069897A898B899C89AD
:101330000E944900DC01CB01888B888989838981DF
:101340008A95F1F7898389A98F5F89AB99A98AA9C1
:10135000981708F436CF1CAE1DAEBBCDDF93CF93EC
:10136000CDB7DEB78091D7028823C9F4E2E5F0E07B
:1013700010821092D2021092D3021092D4021092D4
:10138000D50281E08093D70281E062E041E00E94D3
:10139000060A81E062E041E00E940E0B1AC08091D3
:1013A000D7028130B1F40E94D7188093D602809181
:1013B000D2029091D302A091D402B091D502809331
:1013C000D8029093D902A093DA02B093DB02109274
:1013D000D702CF91DF910895DF93CF93CDB7DEB7DA
:1013E0008091D2029091D302A091D402B091D50203
:1013F0000196A11DB11D8093D2029093D302A093B8
:10140000D402B093D502CF91DF910895DF93CF93AB
:10141000CDB7DEB727970FB6F894DEBF0FBECDBFAE
:1014200089836A834B838981843008F0EEC08A8186
:10143000883008F0EAC08B81813009F06FC0898163
:10144000282F30E03F832E838E819F81813091054C
:1014500049F12E813F81223031052CF48E819F810C
:10146000009761F0D2C02E813F812230310571F1A9
:101470008E819F8183309105E9F1C7C0AAE3B0E076
:10148000EAE3F0E08081482F8A81282F30E081E074
:1014900090E0022E02C0880F991F0A94E2F7842B75
:1014A0008C93B3C0A7E3B0E0E7E3F0E08081482F7E
:1014B0008A81282F30E081E090E0022E02C0880F60
:1014C000991F0A94E2F7842B8C939FC0A4E3B0E0A9
:1014D000E4E3F0E08081482F8A81282F30E081E02A
:1014E00090E0022E02C0880F991F0A94E2F7842B25
:1014F0008C938BC0A1E3B0E0E1E3F0E08081482F62
:101500008A81282F30E081E090E0022E02C0880F0F
:10151000991F0A94E2F7842B8C9377C08B818823E0
:1015200009F073C08981282F30E03D832C838C81A2
:101530009D818130910559F12C813D812230310509
:101540002CF48C819D81009769F05FC02C813D81D6
:101550002230310589F18C819D818330910509F418
:1015600040C053C0AAE3B0E0EAE3F0E08081482F36
:101570008A81282F30E081E090E0022E02C0880F9F
:10158000991F0A94E2F7809584238C933EC0A7E3C9
:10159000B0E0E7E3F0E08081482F8A81282F30E037
:1015A00081E090E0022E02C0880F991F0A94E2F7B2
:1015B000809584238C9329C0A4E3B0E0E4E3F0E0B9
:1015C0008081482F8A81282F30E081E090E0022E30
:1015D00002C0880F991F0A94E2F7809584238C93A8
:1015E00014C0A1E3B0E0E1E3F0E08081482F8A81FC
:1015F000282F30E081E090E0022E02C0880F991F72
:101600000A94E2F7809584238C9327960FB6F8947A
:10161000DEBF0FBECDBFCF91DF910895DF93CF9393
:10162000CDB7DEB727970FB6F894DEBF0FBECDBF9C
:1016300089836A834B838981843008F0EEC08A8174
:10164000883008F0EAC08B81813009F06FC0898151
:10165000282F30E03F832E838E819F81813091053A
:1016600049F12E813F81223031052CF48E819F81FA
:10167000009761F0D2C02E813F812230310571F197
:101680008E819F8183309105E9F1C7C0ABE3B0E063
:10169000EBE3F0E08081482F8A81282F30E081E061
:1016A00090E0022E02C0880F991F0A94E2F7842B63
:1016B0008C93B3C0A8E3B0E0E8E3F0E08081482F6A
:1016C0008A81282F30E081E090E0022E02C0880F4E
:1016D000991F0A94E2F7842B8C939FC0A5E3B0E096
:1016E000E5E3F0E08081482F8A81282F30E081E017
:1016F00090E0022E02C0880F991F0A94E2F7842B13
:101700008C938BC0A2E3B0E0E2E3F0E08081482F4D
:101710008A81282F30E081E090E0022E02C0880FFD
:10172000991F0A94E2F7842B8C9377C08B818823CE
:1017300009F073C08981282F30E03D832C838C8190
:101740009D818130910559F12C813D8122303105F7
:101750002CF48C819D81009769F05FC02C813D81C4
:101760002230310589F18C819D818330910509F406
:1017700040C053C0ABE3B0E0EBE3F0E08081482F22
:101780008A81282F30E081E090E0022E02C0880F8D
:10179000991F0A94E2F7809584238C933EC0A8E3B6
:1017A000B0E0E8E3F0E08081482F8A81282F30E024
:1017B00081E090E0022E02C0880F991F0A94E2F7A0
:1017C000809584238C9329C0A5E3B0E0E5E3F0E0A5
:1017D0008081482F8A81282F30E081E090E0022E1E
:1017E00002C0880F991F0A94E2F7809584238C9396
:1017F00014C0A2E3B0E0E2E3F0E08081482F8A81E8
:10180000282F30E081E090E0022E02C0880F991F5F
:101810000A94E2F7809584238C9327960FB6F89468
:10182000DEBF0FBECDBFCF91DF910895DF93CF9381
:1018300000D000D000D0CDB7DEB78A836B838A8119
:10184000843008F06EC08B81883008F06AC08A81CD
:10185000282F30E03E832D834D815E81413051053C
:1018600041F18D819E818230910534F42D813E813C
:101870002115310561F052C04D815E814230510524
:1018800051F18D819E8183309105B9F147C0E9E323
:10189000F0E08081282F30E08B81882F90E0A90133
:1018A00002C0559547958A95E2F7CA0181708983F0
:1018B00035C0E6E3F0E08081282F30E08B81882F6F
:1018C00090E0A90102C0559547958A95E2F7CA01B3
:1018D0008170898323C0E3E3F0E08081282F30E02A
:1018E0008B81882F90E0A90102C0559547958A9574
:1018F000E2F7CA018170898311C0E0E3F0E08081E2
:10190000282F30E08B81882F90E0A90102C05595E7
:1019100047958A95E2F7CA018170898359815C8372
:1019200002C08FEF8C838C8126960FB6F894DEBFB1
:101930000FBECDBFCF91DF910895DF93CF9300D03D
:1019400000D0CDB7DEB789836A838981843090F572
:101950008981282F30E03C832B838B819C818130CF
:101960009105D1F02B813C81223031052CF48B8103
:101970009C81009761F01EC02B813C812230310593
:1019800081F08B819C818330910581F013C0EAE363
:10199000F0E08A8180830EC0E7E3F0E08A818083F3
:1019A00009C0E4E3F0E08A81808304C0E1E3F0E071
:1019B0008A8180830F900F900F900F90CF91DF91CD
:1019C0000895DF93CF9300D000D0CDB7DEB78983E1
:1019D0006A838981843090F58981282F30E03C83A7
:1019E0002B838B819C8181309105D1F02B813C81AF
:1019F000223031052CF48B819C81009761F01EC050
:101A00002B813C812230310581F08B819C81833098
:101A1000910581F013C0EBE3F0E08A8180830EC072
:101A2000E8E3F0E08A81808309C0E5E3F0E08A81A1
:101A3000808304C0E2E3F0E08A8180830F900F90FE
:101A40000F900F90CF91DF9108951F920F920FB6D4
:101A50000F9211242F933F934F935F936F937F9334
:101A60008F939F93AF93BF93EF93FF93DF93CF93A6
:101A7000CDB7DEB7E091E102F091E2020995CF9196
:101A8000DF91FF91EF91BF91AF919F918F917F91E6
:101A90006F915F914F913F912F910F900FBE0F90DB
:101AA0001F9018951F920F920FB60F9211242F932B
:101AB0003F934F935F936F937F938F939F93AF93D6
:101AC000BF93EF93FF93DF93CF93CDB7DEB7E09152
:101AD000DF02F091E0020995CF91DF91FF91EF9144
:101AE000BF91AF919F918F917F916F915F914F9136
:101AF0003F912F910F900FBE0F901F9018951F923E
:101B00000F920FB60F9211242F933F934F935F9331
:101B10006F937F938F939F93AF93BF93EF93FF93B5
:101B2000DF93CF93CDB7DEB7E091DD02F091DE0217
:101B30000995CF91DF91FF91EF91BF91AF919F9167
:101B40008F917F916F915F914F913F912F910F9066
:101B50000FBE0F901F901895DF93CF93CDB7DEB7D0
:101B600029970FB6F894DEBF0FBECDBF89836A8375
:101B70004B838981882309F05EC083E062E040E006
:101B80000E94060A8A81282F30E0398728878885B5
:101B900099858130910591F128853985223031056B
:101BA0002CF4888599850097D1F045C02885398522
:101BB0002230310591F18885998583309105D9F5D9
:101BC000A5E5B0E0E5E5F0E080818E7F8C93A5E5AA
:101BD000B0E0E5E5F0E080818D7F8C932CC0A5E539
:101BE000B0E0E5E5F0E080818E7F8C93A5E5B0E084
:101BF000E5E5F0E0808182608C931DC0A5E5B0E052
:101C0000E5E5F0E0808181608C93A5E5B0E0E5E555
:101C1000F0E0808182608C930EC0A5E5B0E0E5E540
:101C2000F0E080818E7F8C93A5E5B0E0E5E5F0E003
:101C300080818D7F8C938981813009F063C083E03E
:101C400063E040E00E94060A83E063E041E00E9416
:101C50000E0B8A81282F30E03F832E838E819F8157
:101C60008130910591F12E813F81223031052CF494
:101C70008E819F810097D1F045C02E813F81223017
:101C8000310591F18E819F8183309105D9F5A5E5CC
:101C9000B0E0E5E5F0E080818B7F8C93A5E5B0E0D6
:101CA000E5E5F0E08081877F8C932CC0A5E5B0E06E
:101CB000E5E5F0E080818B7F8C93A5E5B0E0E5E57C
:101CC000F0E0808188608C931DC0A5E5B0E0E5E57B
:101CD000F0E0808184608C93A5E5B0E0E5E5F0E07C
:101CE000808188608C930EC0A5E5B0E0E5E5F0E06A
:101CF00080818B7F8C93A5E5B0E0E5E5F0E0808105
:101D0000877F8C938981823041F581E062E040E0F9
:101D10000E94060A81E062E041E00E940E0B8A8187
:101D2000282F30E03D832C838C819D81009731F0FA
:101D30002C813D812130310549F00FC0A4E5B0E090
:101D4000E4E5F0E080818F7B8C9307C0A4E5B0E0F0
:101D5000E4E5F0E0808180648C938B81813041F5F3
:101D60008981882341F4ABE5B0E0EBE5F0E08081C8
:101D700080648C9315C08981813041F4ABE5B0E07B
:101D8000EBE5F0E0808180688C930AC08981823025
:101D900039F4ABE5B0E0EBE5F0E0808180628C9354
:101DA000AFE5B0E0EFE5F0E0808180688C9320C083
:101DB0008981882341F4ABE5B0E0EBE5F0E0808178
:101DC0008F7B8C9315C08981813041F4ABE5B0E005
:101DD000EBE5F0E080818F778C930AC089818230B7
:101DE00039F4ABE5B0E0EBE5F0E080818F7D8C93DA
:101DF00029960FB6F894DEBF0FBECDBFCF91DF910D
:101E00000895DF93CF9300D00F92CDB7DEB78983CB
:101E10008981282F30E03B832A838A819B8181300E
:101E2000910589F02A813B8122303105A1F08A8118
:101E30009B810097B9F4ABE5B0E0EBE5F0E0808181
:101E40008F7B8C930FC0ABE5B0E0EBE5F0E08081D9
:101E50008F778C9307C0ABE5B0E0EBE5F0E08081D5
:101E60008F7D8C930F900F900F90CF91DF910895FD
:101E7000DF93CF9300D000D0CDB7DEB78A838A81BD
:101E8000282F30E03C832B838B819C81813091050E
:101E900099F02B813C8122303105B1F08B819C81FE
:101EA0000097D1F4EAE5F0E08081829586958695E9
:101EB00083708170898310C0EAE5F0E08081881F1B
:101EC0008827881F898308C0EAE5F0E08081829531
:101ED000869587708170898389810F900F900F900C
:101EE0000F90CF91DF910895DF93CF9300D00F92A1
:101EF000CDB7DEB789838981282F30E03B832A83E1
:101F00008A819B818130910589F02A813B81223031
:101F10003105A1F08A819B810097B9F4AAE5B0E070
:101F2000EAE5F0E0808180648C930FC0AAE5B0E020
:101F3000EAE5F0E0808180688C9307C0AAE5B0E014
:101F4000EAE5F0E0808180628C930F900F900F9013
:101F5000CF91DF910895DF93CF9300D0CDB7DEB757
:101F60009A83898389819A819093E2028093E10226
:101F70000F900F90CF91DF910895DF93CF9300D012
:101F8000CDB7DEB79A83898389819A819093E002E5
:101F90008093DF020F900F90CF91DF910895DF9330
:101FA000CF9300D0CDB7DEB79A83898389819A8198
:101FB0009093DE028093DD020F900F90CF91DF911E
:101FC0000895DF93CF93CDB7DEB781E061E040E0C5
:101FD0000E94060ACF91DF910895DF93CF930F926D
:101FE000CDB7DEB781E061E00E94160C89810F90C9
:101FF000CF91DF910895DF93CF93CDB7DEB7E89708
:102000000FB6F894DEBF0FBECDBF82E06FEF0E9427
:102010009D0C83E060EE0E949D0C80E090E0A0E8C3
:10202000BFE38DAB9EABAFABB8AF6DA97EA98FA957
:1020300098AD20E030E04AEF54E40E941F02DC013A
:10204000CB0189AB9AABABABBCAB69A97AA98BA925
:102050009CA920E030E040E85FE30E94250488234B
:102060002CF481E090E098AB8FA73FC069A97AA9D2
:102070008BA99CA920E03FEF4FE757E40E94C503DE
:1020800018164CF56DA97EA98FA998AD20E030E017
:1020900040E251E40E941F02DC01CB01BC01CD01F2
:1020A0000E944900DC01CB0198AB8FA70FC088ECE0
:1020B00090E09EA78DA78DA59EA50197F1F79EA7FD
:1020C0008DA78FA598A9019798AB8FA78FA598A9E1
:1020D000009769F714C069A97AA98BA99CA90E94E5
:1020E0004900DC01CB0198AB8FA78FA598A99CA7CD
:1020F0008BA78BA59CA50197F1F79CA78BA788E3DD
:102100000E94EA1180E090E0A0E8BFE38FA398A7C7
:10211000A9A7BAA76FA178A589A59AA520E030E064
:102120004AEF54E40E941F02DC01CB018BA39CA365
:10213000ADA3BEA36BA17CA18DA19EA120E030E048
:1021400040E85FE30E94250488232CF481E090E0BE
:102150009AA389A33FC06BA17CA18DA19EA120E081
:102160003FEF4FE757E40E94C50318164CF56FA1E7
:1021700078A589A59AA520E030E040E251E40E94CC
:102180001F02DC01CB01BC01CD010E944900DC0132
:10219000CB019AA389A30FC088EC90E098A38F8FFE
:1021A0008F8D98A10197F1F798A38F8F89A19AA19C
:1021B00001979AA389A389A19AA1009769F714C0EE
:1021C0006BA17CA18DA19EA10E944900DC01CB01E5
:1021D0009AA389A389A19AA19E8F8D8F8D8D9E8DA3
:1021E0000197F1F79E8F8D8F8FE00E94EA1180E0BA
:1021F00090E0A0E8BFE3898F9A8FAB8FBC8F698D89
:102200007A8D8B8D9C8D20E030E04AEF54E40E9463
:102210001F02DC01CB018D8B9E8BAF8BB88F6D893C
:102220007E898F89988D20E030E040E85FE30E944E
:10223000250488232CF481E090E09C8B8B8B3FC09D
:102240006D897E898F89988D20E03FEF4FE757E4B5
:102250000E94C50318164CF5698D7A8D8B8D9C8D67
:1022600020E030E040E251E40E941F02DC01CB019B
:10227000BC01CD010E944900DC01CB019C8B8B8B02
:102280000FC088EC90E09A8B898B89899A89019795
:10229000F1F79A8B898B8B899C8901979C8B8B8B0F
:1022A0008B899C89009769F714C06D897E898F8915
:1022B000988D0E944900DC01CB019C8B8B8B8B8914
:1022C0009C89988B8F878F8598890197F1F7988BD8
:1022D0008F8781E00E94EA1180E090E0A0E0B0E406
:1022E0008B879C87AD87BE876B857C858D859E851A
:1022F00020E030E04AEF54E40E941F02DC01CB01F1
:102300008F839887A987BA876F81788589859A8511
:1023100020E030E040E85FE30E94250488232CF4AD
:1023200081E090E09E838D833FC06F8178858985B1
:102330009A8520E03FEF4FE757E40E94C503181647
:102340004CF56B857C858D859E8520E030E040E2F4
:1023500051E40E941F02DC01CB01BC01CD010E94AF
:102360004900DC01CB019E838D830FC088EC90E097
:102370009C838B838B819C810197F1F79C838B835A
:102380008D819E8101979E838D838D819E81009793
:1023900069F714C06F81788589859A850E94490004
:1023A000DC01CB019E838D838D819E819A838983FD
:1023B00089819A810197F1F79A83898386E00E9447
:1023C000EA11E8960FB6F894DEBF0FBECDBFCF91ED
:1023D000DF910895DF93CF93CDB7DEB72F970FB678
:1023E000F894DEBF0FBECDBF8F8783E065E040E08D
:1023F0000E940E0B83E066E040E00E940E0B82E03C
:102400006F850E94E10C83E067E041E00E940E0BC3
:1024100080E090E0A0E8BFE38B879C87AD87BE8714
:102420006B857C858D859E8520E030E04AEF54E405
:102430000E941F02DC01CB018F839887A987BA878E
:102440006F81788589859A8520E030E040E85FE3F8
:102450000E94250488232CF481E090E09E838D83E4
:102460003FC06F81788589859A8520E03FEF4FE7EF
:1024700057E40E94C50318164CF56B857C858D8545
:102480009E8520E030E040E251E40E941F02DC0122
:10249000CB01BC01CD010E944900DC01CB019E8330
:1024A0008D830FC088EC90E09C838B838B819C8113
:1024B0000197F1F79C838B838D819E8101979E8389
:1024C0008D838D819E81009769F714C06F81788517
:1024D00089859A850E944900DC01CB019E838D830A
:1024E0008D819E819A83898389819A810197F1F7F1
:1024F0009A83898383E067E040E00E940E0B2F9669
:102500000FB6F894DEBF0FBECDBFCF91DF91089517
:10251000DF93CF93CDB7DEB72F970FB6F894DEBF1A
:102520000FBECDBF8F8783E065E041E00E940E0BB8
:1025300083E066E040E00E940E0B82E06F850E941F
:10254000E10C83E067E041E00E940E0B80E090E048
:10255000A0E8BFE38B879C87AD87BE876B857C85B2
:102560008D859E8520E030E04AEF54E40E941F02F2
:10257000DC01CB018F839887A987BA876F81788523
:1025800089859A8520E030E040E85FE30E942504D9
:1025900088232CF481E090E09E838D833FC06F817F
:1025A000788589859A8520E03FEF4FE757E40E94C0
:1025B000C50318164CF56B857C858D859E8520E0BE
:1025C00030E040E251E40E941F02DC01CB01BC017B
:1025D000CD010E944900DC01CB019E838D830FC099
:1025E00088EC90E09C838B838B819C810197F1F731
:1025F0009C838B838D819E8101979E838D838D81AA
:102600009E81009769F714C06F81788589859A85C6
:102610000E944900DC01CB019E838D838D819E81C8
:102620009A83898389819A810197F1F79A838983B3
:1026300083E067E040E00E940E0B2F960FB6F894FF
:10264000DEBF0FBECDBFCF91DF910895DF93CF9353
:1026500000D00F92CDB7DEB79B838A8319820EC05C
:102660008981282F30E08A819B81FC01E20FF31FD2
:1026700080810E94881289818F5F89838981282FB8
:1026800030E08A819B81FC01E20FF31F8081882367
:1026900039F70F900F900F90CF91DF910895DF934E
:1026A000CF9300D0CDB7DEB789836A838981833029
:1026B00098F48A81813180F48981813029F48A817A
:1026C00080580E94EA110CC08981823049F48A81C5
:1026D00080540E94EA1104C084E690E00E94261310
:1026E0000F900F90CF91DF910895DF93CF9300D09B
:1026F0000F92CDB7DEB789838981282F30E03B83E5
:102700002A838A819B818230910549F12A813B810C
:102710002330310534F48A819B818130910569F041
:1027200081C02A813B812430310559F18A819B8106
:102730008830910509F44EC075C081E00E94EA110D
:102740008091D1028F5F0E94EA118091D1028F5F48
:102750008093D1028AE690E00E94261363C081E054
:102760000E94EA118091D10281500E94EA11809169
:10277000D10281508093D1028AE690E00E94261314
:1027800051C081E00E94EA118091D102813C90F019
:102790008091D102982F905C81E0692F0E944F13A5
:1027A0008AE690E00E9426138091D10280548093A3
:1027B000D10238C081E00E94EA118091D102982FA5
:1027C000905881E0692F0E944F138AE690E00E94A2
:1027D000261328C081E00E94EA118091D10280393D
:1027E00090F48091D102982F905882E0692F0E9436
:1027F0004F138AE690E00E9426138091D102805CFC
:102800008093D1020FC081E00E94EA118091D10231
:10281000982F905C82E0692F0E944F138AE690E027
:102820000E9426130F900F900F90CF91DF91089583
:10283000DF93CF9300D000D0CDB7DEB769837A8322
:102840008B839C8389819A81AB81BC81BC01CD0142
:102850000E947A14DC01CB0189839A83AB83BC8309
:1028600089819A81AB81BC810097A105B10569F18D
:1028700023C089819A81AB81BC812AE030E040E0AD
:1028800050E0BC01CD010E94471BDC01CB01805D03
:102890000E94881289819A81AB81BC812AE030E054
:1028A00040E050E0BC01CD010E94471BDA01C901A4
:1028B00089839A83AB83BC8389819A81AB81BC81F4
:1028C00081309105A105B105A1F60F900F900F90F1
:1028D0000F90CF91DF910895DF93CF930F92CDB7F3
:1028E000DEB789838981805D0E9488120F90CF9125
:1028F000DF910895EF92FF920F931F93DF93CF9391
:10290000CDB7DEB72C970FB6F894DEBF0FBECDBFA4
:102910006D837E838F83988781E090E0A0E0B0E0B4
:1029200089839A83AB83BC838D819E81AF81B88577
:10293000BB2394F48D819E81AF81B885B095A0951D
:10294000909581959F4FAF4FBF4F8D839E83AF83EF
:10295000B8878DE20E9488128D819E81AF81B885F3
:102960000097A105B105F1F580E30E948812198650
:102970001A861B861C8646C089819A81AB81BC81E0
:102980002AE030E040E050E0BC01CD010E94F31AA3
:102990007B018C018D819E81AF81B8852AE030E07A
:1029A00040E050E0BC01CD010E94471BDC01CB019F
:1029B0008E0D9F1DA01FB11F89839A83AB83BC839B
:1029C0008D819E81AF81B8852AE030E040E050E003
:1029D000BC01CD010E94471BDA01C9018D839E8392
:1029E000AF83B8878D819E81AF81B8850097A1059F
:1029F000B10511F689819A81AB81BC8189879A875B
:102A0000AB87BC8789859A85AB85BC85BC01CD0128
:102A10002C960FB6F894DEBF0FBECDBFCF91DF91DD
:102A20001F910F91FF90EF9008951F920F920FB694
:102A30000F9211242F933F934F935F936F937F9344
:102A40008F939F93AF93BF93EF93FF93DF93CF93B6
:102A5000CDB7DEB7E091F102F091F2020995CF9186
:102A6000DF91FF91EF91BF91AF919F918F917F91F6
:102A70006F915F914F913F912F910F900FBE0F90EB
:102A80001F9018951F920F920FB60F9211242F933B
:102A90003F934F935F936F937F938F939F93AF93E6
:102AA000BF93EF93FF93DF93CF93CDB7DEB7E09162
:102AB000ED02F091EE020995CF91DF91FF91EF9138
:102AC000BF91AF919F918F917F916F915F914F9146
:102AD0003F912F910F900FBE0F901F9018951F924E
:102AE0000F920FB60F9211242F933F934F935F9342
:102AF0006F937F938F939F93AF93BF93EF93FF93C6
:102B0000DF93CF93CDB7DEB7E091E502F091E60217
:102B10000995CF91DF91FF91EF91BF91AF919F9177
:102B20008F917F916F915F914F913F912F910F9076
:102B30000FBE0F901F9018951F920F920FB60F9215
:102B400011242F933F934F935F936F937F938F93B2
:102B50009F93AF93BF93EF93FF93DF93CF93CDB743
:102B6000DEB7E091E702F091E8020995CF91DF919D
:102B7000FF91EF91BF91AF919F918F917F916F9155
:102B80005F914F913F912F910F900FBE0F901F902B
:102B900018951F920F920FB60F9211242F933F9307
:102BA0004F935F936F937F938F939F93AF93BF9355
:102BB000EF93FF93DF93CF93CDB7DEB7E091E902B8
:102BC000F091EA020995CF91DF91FF91EF91BF91CA
:102BD000AF919F918F917F916F915F914F913F91B5
:102BE0002F910F900FBE0F901F9018951F920F926C
:102BF0000FB60F9211242F933F934F935F936F93D0
:102C00007F938F939F93AF93BF93EF93FF93DF9344
:102C1000CF93CDB7DEB7E091EF02F091F0020995C6
:102C2000CF91DF91FF91EF91BF91AF919F918F91E4
:102C30007F916F915F914F913F912F910F900FBEB8
:102C40000F901F9018951F920F920FB60F9211249C
:102C50002F933F934F935F936F937F938F939F93A4
:102C6000AF93BF93EF93FF93DF93CF93CDB7DEB7CF
:102C7000E091EB02F091EC020995CF91DF91FF9189
:102C8000EF91BF91AF919F918F917F916F915F91E4
:102C90004F913F912F910F900FBE0F901F9018955D
:102CA0001F920F920FB60F9211242F933F934F93C1
:102CB0005F936F937F938F939F93AF93BF93EF93A4
:102CC000FF93DF93CF93CDB7DEB7E091E302F091AE
:102CD000E4020995CF91DF91FF91EF91BF91AF9100
:102CE0009F918F917F916F915F914F913F912F9124
:102CF0000F900FBE0F901F901895DF93CF93CDB715
:102D0000DEB72C970FB6F894DEBF0FBECDBF9A8307
:102D1000898389818370882F90E0009709F0ECC146
:102D20008981869586958F70282F30E03C872B8788
:102D30008B859C858130910599F12B853C852230CE
:102D400031052CF48B859C85009761F046C02B855E
:102D50003C8522303105A9F08B859C858330910517
:102D600071F13BC0A3E5B0E0E3E5F0E080818F7B4B
:102D70008C93A3E5B0E0E3E5F0E08081877F8C935E
:102D80002CC0A3E5B0E0E3E5F0E080818F7B8C937D
:102D9000A3E5B0E0E3E5F0E0808188608C931DC09E
:102DA000A3E5B0E0E3E5F0E0808180648C93A3E5E7
:102DB000B0E0E3E5F0E08081877F8C930EC0A3E56F
:102DC000B0E0E3E5F0E0808180648C93A3E5B0E0BF
:102DD000E3E5F0E0808188608C938A81869583703A
:102DE000282F30E03A87298789859A858130910597
:102DF00021F129853A85223031052CF489859A857F
:102E0000009761F046C029853A852230310521F1CD
:102E100089859A858330910571F13BC0A3E5B0E0C7
:102E2000E3E5F0E080818F7D8C93A3E5B0E0E3E5FE
:102E3000F0E080818F7E8C932CC0A3E5B0E0E3E5C9
:102E4000F0E0808180628C93A3E5B0E0E3E5F0E000
:102E500080818F7E8C931DC0A3E5B0E0E3E5F0E0B8
:102E6000808180628C93A3E5B0E0E3E5F0E08081AF
:102E700080618C930EC0A3E5B0E0E3E5F0E08081D3
:102E80008F7D8C93A3E5B0E0E3E5F0E08081806185
:102E90008C938981982F92959695969593708A81B7
:102EA0008170880F880F892B282F30E038872F8377
:102EB0008F8198858330910509F470C02F81388502
:102EC0002430310584F48F81988581309105D1F1CA
:102ED0002F813885223031050CF04AC08F819885CA
:102EE0000097D1F0C8C02F8138852530310509F40D
:102EF00081C08F819885853091050CF465C02F8144
:102F000038852630310509F48BC08F81988587304C
:102F1000910509F49BC0AFC0A3E5B0E0E3E5F0E0A4
:102F200080818E7F8C93A3E5B0E0E3E5F0E08081C3
:102F30008D7F8C93A3E5B0E0E3E5F0E080818B7FAB
:102F40008C9399C0A3E5B0E0E3E5F0E08081816077
:102F50008C93A3E5B0E0E3E5F0E080818D7F8C9376
:102F6000A3E5B0E0E3E5F0E080818B7F8C9383C044
:102F7000A3E5B0E0E3E5F0E080818E7F8C93A3E5EC
:102F8000B0E0E3E5F0E0808182608C93A3E5B0E0FF
:102F9000E3E5F0E080818B7F8C936DC0A3E5B0E02A
:102FA000E3E5F0E0808181608C93A3E5B0E0E3E5A8
:102FB000F0E0808182608C93A3E5B0E0E3E5F0E08F
:102FC00080818B7F8C9357C0A3E5B0E0E3E5F0E010
:102FD00080818E7F8C93A3E5B0E0E3E5F0E0808113
:102FE0008D7F8C93A3E5B0E0E3E5F0E08081846021
:102FF0008C9341C0A3E5B0E0E3E5F0E0808181601F
:103000008C93A3E5B0E0E3E5F0E080818D7F8C93C5
:10301000A3E5B0E0E3E5F0E0808184608C932BC011
:10302000A3E5B0E0E3E5F0E080818E7F8C93A3E53B
:10303000B0E0E3E5F0E0808182608C93A3E5B0E04E
:10304000E3E5F0E0808184608C9315C0A3E5B0E0F7
:10305000E3E5F0E0808181608C93A3E5B0E0E3E5F7
:10306000F0E0808182608C93A3E5B0E0E3E5F0E0DE
:10307000808184608C938A818695869586958170FF
:10308000282F30E03E832D838D819E81009769F04B
:103090002D813E812130310579F4A9E5B0E0E9E5E3
:1030A000F0E0808181608C9307C0A9E5B0E0E9E59C
:1030B000F0E080818E7F8C938A8182958F70817001
:1030C000282F30E03C832B838B819C81009769F013
:1030D0002B813C812130310579F4A9E5B0E0E9E5A7
:1030E000F0E0808182608C9307C0A9E5B0E0E9E55B
:1030F000F0E080818D7F8C932C960FB6F894DEBF24
:103100000FBECDBFCF91DF910895DF93CF9300D055
:1031100000D00F92CDB7DEB789837B836A838A8123
:103120008370882F90E00097D1F58A8186958695E7
:103130008F70882F90E08330910589F58B8186957B
:103140008370282F30E03D832C838C819D818130DA
:10315000910531F02C813D812230310589F01FC06D
:10316000ECE5F0E08981882F90E0982F882724E60D
:1031700030E0B9010E94121BCB01815080830FC047
:10318000ECE5F0E08981882F90E0982F882724E6ED
:1031900030E0B9010E94121BCB01809580830F9013
:1031A0000F900F900F900F90CF91DF910895DF93C4
:1031B000CF93CDB7DEB7E2E5F0E08081CF91DF912C
:1031C0000895DF93CF930F92CDB7DEB789838981BE
:1031D000882F90E0009739F4A3E5B0E0E3E5F0E054
:1031E0008081887F8C930F90CF91DF910895DF933A
:1031F000CF9300D0CDB7DEB79A83898389819A8136
:103200009093F2028093F1020F900F90CF91DF9193
:103210000895DF93CF9300D0CDB7DEB79A8389832B
:1032200089819A819093EE028093ED020F900F9026
:10323000CF91DF910895DF93CF9300D0CDB7DEB764
:103240009A83898389819A819093E6028093E5022B
:103250000F900F90CF91DF910895DF93CF9300D01F
:10326000CDB7DEB79A83898389819A819093EA02E8
:103270008093E9020F900F90CF91DF910895DF9333
:10328000CF9300D0CDB7DEB79A83898389819A81A5
:103290009093E8028093E7020F900F90CF91DF9117
:1032A0000895DF93CF9300D0CDB7DEB79A8389839B
:1032B00089819A819093F0028093EF020F900F9092
:1032C000CF91DF910895DF93CF9300D0CDB7DEB7D4
:1032D0009A83898389819A819093EC028093EB028F
:1032E0000F900F90CF91DF910895DF93CF9300D08F
:1032F000CDB7DEB79A83898389819A819093E4025E
:103300008093E3020F900F90CF91DF910895DF93A8
:10331000CF930F92CDB7DEB7898389816FEF0E947B
:103320009D0C0F90CF91DF910895DF93CF9300D044
:10333000CDB7DEB789836A8389816A810E94E10CF7
:103340000F900F90CF91DF910895DF93CF9300D02E
:10335000CDB7DEB789836A8389816A8141E00E94A3
:10336000060A0F900F90CF91DF910895DF93CF93CE
:1033700000D0CDB7DEB789836A8389816A8141E055
:103380000E940E0B0F900F90CF91DF910895DF9365
:10339000CF9300D0CDB7DEB789836A8389816A81F4
:1033A00040E00E940E0B0F900F90CF91DF91089597
:1033B000DF93CF9300D000D0CDB7DEB789836A8387
:1033C0008981282F30E03C832B838B819C81813045
:1033D000910549F12B813C81223031052CF48B8100
:1033E0009C81009761F05AC02B813C8122303105CD
:1033F00071F18B819C8183309105E9F14FC0ABE382
:10340000B0E0EBE3F0E08081482F8A81282F30E0A4
:1034100081E090E0022E02C0880F991F0A94E2F723
:1034200084278C933BC0A8E3B0E0E8E3F0E0808120
:10343000482F8A81282F30E081E090E0022E02C0E0
:10344000880F991F0A94E2F784278C9327C0A5E37D
:10345000B0E0E5E3F0E08081482F8A81282F30E05A
:1034600081E090E0022E02C0880F991F0A94E2F7D3
:1034700084278C9313C0A2E3B0E0E2E3F0E0808104
:10348000482F8A81282F30E081E090E0022E02C090
:10349000880F991F0A94E2F784278C930F900F905E
:1034A0000F900F90CF91DF910895DF93CF93CDB719
:1034B000DEB70E9417070E94550780E090E0CF9189
:1034C000DF910895DF93CF93CDB7DEB72E970FB678
:1034D000F894DEBF0FBECDBF9091DC0280E0692F73
:1034E00041E00E940E0B8091DC028F5F8093DC0232
:1034F00080E090E0A0EAB0E48B879C87AD87BE8730
:103500006B857C858D859E8520E030E04AEF54E414
:103510000E941F02DC01CB018F839887A987BA879D
:103520006F81788589859A8520E030E040E85FE307
:103530000E94250488232CF481E090E09E838D83F3
:103540003FC06F81788589859A8520E03FEF4FE7FE
:1035500057E40E94C50318164CF56B857C858D8554
:103560009E8520E030E040E251E40E941F02DC0131
:10357000CB01BC01CD010E944900DC01CB019E833F
:103580008D830FC088EC90E09C838B838B819C8122
:103590000197F1F79C838B838D819E8101979E8398
:1035A0008D838D819E81009769F714C06F81788526
:1035B00089859A850E944900DC01CB019E838D8319
:1035C0008D819E819A83898389819A810197F1F700
:1035D0009A8389832E960FB6F894DEBF0FBECDBFB7
:1035E000CF91DF910895629FD001739FF001829F78
:1035F000E00DF11D649FE00DF11D929FF00D839F82
:10360000F00D749FF00D659FF00D9927729FB00D1E
:10361000E11DF91F639FB00DE11DF91FBD01CF0131
:103620001124089597FB092E07260AD077FD04D0B0
:1036300049D006D000201AF4709561957F4F089507
:10364000F6F7909581959F4F0895A1E21A2EAA1B37
:10365000BB1BFD010DC0AA1FBB1FEE1FFF1FA21742
:10366000B307E407F50720F0A21BB30BE40BF50B3F
:10367000661F771F881F991F1A9469F760957095C8
:10368000809590959B01AC01BD01CF01089597FBFA
:10369000092E05260ED057FD04D0D7DF0AD0001C16
:1036A00038F450954095309521953F4F4F4F5F4FDF
:1036B0000895F6F790958095709561957F4F8F4F9F
:1036C0009F4F0895AA1BBB1B51E107C0AA1FBB1F38
:1036D000A617B70710F0A61BB70B881F991F5A959E
:1036E000A9F780959095BC01CD0108952F923F9246
:1036F0004F925F926F927F928F929F92AF92BF9202
:10370000CF92DF92EF92FF920F931F93CF93DF93AD
:10371000CDB7DEB7CA1BDB0B0FB6F894DEBF0FBE0A
:10372000CDBF09942A88398848885F846E847D8457
:103730008C849B84AA84B984C884DF80EE80FD8059
:103740000C811B81AA81B981CE0FD11D0FB6F894CF
:0E375000DEBF0FBECDBFED010895F894FFCF90
:10375E00414243006572726F72007368696D6161F8
:10376E00000000000000000000000102020303033D
:10377E0003040404040404040405050505050505F5
:10378E0005050505050505050506060606060606D4
:10379E0006060606060606060606060606060606BB
:1037AE0006060606060606060607070707070707A4
:1037BE00070707070707070707070707070707078B
:1037CE00070707070707070707070707070707077B
:1037DE00070707070707070707070707070707076B
:1037EE000707070707070707070808080808080854
:1037FE00080808080808080808080808080808083B
:10380E00080808080808080808080808080808082A
:10381E00080808080808080808080808080808081A
:10382E00080808080808080808080808080808080A
:10383E0008080808080808080808080808080808FA
:10384E0008080808080808080808080808080808EA
:10385E0008080808080808080808080808080808DA
:10386E00080808080808080808007E9090909090B4
:10387E007E00007F91919191916600007E81818101
:10388E008181000000FF81818181423C0000FF891F
:10389E0089898181810000FF88888880808000006E
:1038AE007E8181898F80600000FF0808080808FF6C
:1038BE000000008181FF8181000000028181FE8075
:1038CE0080000000FF1824428101000000FF01016A
:1038DE00010100000000FF8040204080FF0000FE3C
:1038EE000408102040FE00007E81818181817E00CF
:1038FE0000FF90909090906000007B82828A86827A
:10390E007C0000FF909894929161000042A19189F1
:10391E008581820000808080FF8080800000FE0113
:10392E0001010101FE00001804020102041800004A
:10393E00FF0204080402FF00008142241024428189
:10394E0000008040201F204080000082868A92A2C4
:10395E00C2820000000000000000000000FF818114
:10396E00818181FF0000004141FF01010000000044
:10397E0001438589916100000000029191926C00D3
:10398E000008182848FF08000001F19191919F80CE
:10399E00800000FF9191919F000000004040404048
:1039AE0040407F0000FF9191919191FF0000FF81B7
:1039BE0081818181FF00000000E7E7E700000060E1
:0239CE00008077
:00000001FF
